:020000041000EA
:1000000000B5324B212058609868022188439860DF
:10001000D860186158612E4B002199600221596106
:100020000121F02299502B49196001219960352056
:1000300000F044F80222904214D00621196600F024
:1000400034F8196E01211966002018661A6600F04E
:100050002CF8196E196E196E052000F02FF8012189
:100060000842F9D1002199601B49196000215960AB
:100070001A491B48016001219960EB211966A021F2
:10008000196600F012F800219960164914480160C1
:100090000121996001BC002800D000471248134993
:1000A000086003C880F30888084703B5996A0420EC
:1000B0000142FBD001200142F8D103BD02B5186610
:1000C0001866FFF7F2FF186E186E02BD00000240BE
:1000D000000000180000070000035F00212200005C
:1000E000F4000018222000A00001001008ED00E03C
:1000F00000000000000000000000000074B24E7A12
:1001000000200420F7010010CB010010CD010010E9
:10011000C9010010C9010010C9010010C901001077
:10012000C9010010C9010010C9010010CF01001061
:10013000C9010010C9010010D1010010D301001045
:10014000C1010010C1010010C1010010C101001067
:10015000C1010010C1010010C1010010C101001057
:10016000C1010010C1010010C1010010C101001047
:10017000C1010010C1010010C1010010C101001037
:10018000C1010010C1010010C1010010C101001027
:10019000C1010010C1010010C1010010C101001017
:1001A000C1010010C1010010C1010010C101001007
:1001B000C1010010C1010010C1010010C1010010F7
:1001C000EFF30580103800BE00BE00BE00BE00BECA
:1001D00000BE00BEF2EB8871F4790010187A0010AE
:1001E0003802001090A31AE700201E49086006C8D4
:1001F00081F3088810471C480068002801D00020BF
:10020000F3E70DA40ECC002902D000F012F8F9E7B4
:100210001649174A002000E001C19142FCD115495E
:100220008847154988471549884700BEFDE701C939
:1002300001C29A42FBD37047187A0010C000002018
:10024000C00C0020188600100000042000000420CC
:100250001886001000100420001004200000000088
:100260007047000008ED00E0000000D0C00C002046
:10027000D4180020853B001081020010473B00107D
:1002800070B503F09BFD00F007F900F0FDF80021C8
:10029000002000F03CF92E4800F051F90021012027
:1002A00000F035F92B4800F04AF9FA24E400200068
:1002B00001F052F800F0E8F80021002000F027F9E2
:1002C000254800F03CF90021012000F020F92348E6
:1002D00000F035F9200001F03FF800F0D5F80021DA
:1002E000002000F014F91E4D280000F028F900212C
:1002F000012000F00CF91B4800F021F9200001F06A
:100300002BF800F0C1F80021002000F000F92800CF
:1003100000F015F90021012000F0F9F8124800F072
:100320000EF9200001F018F800F0AEF800210020CE
:1003300000F0EDF80D4800F002F90021012000F076
:10034000E6F80B4800F0FBF8200001F005F89CE708
:10035000E8670010FC6700101068001024680010A7
:1003600038680010486800105C6800106C68001065
:100370007C68001070B5D024240680256D0065616E
:100380000120002100F0D2FFA5616420002100F0CF
:10039000CDFF70BD10B5C3071CD5D0231B0680222E
:1003A000D2005A6183071BD5D0231B06802212017D
:1003B0005A6143071AD5D0231B06802252015A6185
:1003C000000719D5D0231B06802292015A61FFF73E
:1003D000D1FF10BDD0231B068022D2009A61E1E735
:1003E000D0231B06802212019A61E2E7D0231B066C
:1003F000802252019A61E3E7D0231B0680229201FA
:100400009A61E4E710B50400002910D0D0231B0640
:10041000802292005A612009FFF7BCFF0F20204084
:10042000FFF7B8FF3220002100F080FF10BDD0237D
:100430001B06802292009A61EDE710B50021FFF7BC
:10044000E1FF10BD10B50121FFF7DCFF10BD10B5B5
:100450000320FFF79FFF052000F07EFF0320FFF73A
:1004600099FF9620002100F061FF0320FFF792FF23
:100470009620002100F05AFF0220FFF78BFF962004
:10048000002100F053FF10BD10B50120FFF7D5FF8C
:10049000022000F061FF10BD10B5092000F074F8D3
:1004A000082000F071F80A2000F06EF80B2000F030
:1004B0006BF80C2000F068F80D2000F065F8D023F0
:1004C0001B06802189005962802252005A628020D6
:1004D000C0005862802000015862802040015862AC
:1004E00080208001586299619A613220002100F0D9
:1004F0001DFFFFF7ACFF2820FFF79FFF0C20FFF741
:100500009CFFFFF7C1FF0620FFF797FF10BD00B566
:1005100083B001AB8022D2011A80012800D90120CA
:100520000F2900D90F2101AB1B5C5918C9B28020DB
:1005300040420843C0B2FFF780FF03B000BD10B5D2
:10054000040002E0FFF77EFF013420780028F9D193
:1005500010BD000010B58300084A9A1812684024A4
:100560005440C0222240064CA44663441A60C00096
:10057000044B9C466044416010BDC04604C001402D
:1005800004D001400040014010B501238340D02237
:100590001206936293610521FFF7DCFF10BD000096
:1005A00010B58023DB05186803051B0D0B4A934229
:1005B00007D10B4B034080229201934207D1000FD9
:1005C00010BD084B084A0948132103F0BFFA084B35
:1005D000054A0648142103F0B9FAC046270900006D
:1005E00000F0FF0F8C680010A8740010B0680010B5
:1005F000F86800100FB400B583B0084803F0E2FBC0
:10060000049B002B07D005A90191180003F0EAFB19
:10061000034803F0D7FB012003F092FA0C690010A5
:10062000886F0010EFF3108072B6034B1B68002B2D
:10063000FBD0BFF35F8F70472C0100D0BFF35F8FFB
:10064000024B00221A6080F3108870472C0100D002
:1006500070B505000C001600FFF7E4FFE308EA1888
:100660009446E95C07222240012393400B4206D1C5
:10067000DBB20B4362461370FFF7E0FF70BD210051
:100680003000FFF7B7FFF0B583B00500019114000B
:100690001E00FFF7C7FF00E00134B4420CD8E308A6
:1006A000EF18EB5C0721214001228A401A42F3D166
:1006B000D2B21A433A7001E001246442FFF7BEFF50
:1006C000002C02DB200003B0F0BD019B002BF9D011
:1006D0000898FFF78FFF0000054A1078431CDBB233
:1006E0001370172B02D9130010221A707047C046DE
:1006F000D00B002000B583B001000448044B0093E8
:100700001F231822FFF7BFFF03B000BD1C120020FB
:100710001C690010002307E0054A9A189200BFF3F5
:100720005F8F0021116001331F2BF5D97047C04640
:1007300040000034074B9B68103080001950BFF315
:100740005F8FBFF35F8F044B0021196082F3108825
:100750007047C04600ED00E0240100D0004870471B
:1007600000E400E010B5FFF7F9FF002302E0034AC0
:1007700004C00133072BFAD910BDC04680808080A9
:1007800010B50388DA0A1C2A05D15B055B15023314
:100790005B00C01810BD034B034A34210348FF31EE
:1007A00003F0D4F938690010E474001050690010A7
:1007B00010B5091A0B1F0A4A88180A4A904208D82D
:1007C000C90706D45B105B055B0D0748184380B270
:1007D00010BD064B064A26210648FF3103F0B6F944
:1007E000FC070000FE0F000000E0FFFF986900100A
:1007F000D87400105069001001238340034A106828
:100800001840431E9841C0B27047C04600E100E066
:10081000002A05D0044BC02252009950196070473D
:10082000014A8023D150FAE700E100E010B50A0048
:100830001F230340012199404009FFF7E9FF10BD44
:1008400001238340014A13607047C04600E200E084
:10085000024B9B6810308000C058704700ED00E0EC
:1008600010B5FFF7F5FF044BC31A002047229A4248
:100870004041C0B210BDC046D40B002070B5050089
:100880000E00EFF3108472B60D4B1B68002BFBD0EB
:10089000BFF35F8F2800FFF7DBFF0A4B984201D0C0
:1008A000B04205D1220031002800FFF743FF70BDA0
:1008B000054B064A82210648490003F047F9C04625
:1008C000240100D0C1010010C86900100C7500108F
:1008D00050690010F0B5DE4657464E464546E0B535
:1008E00089B0814601911500EFF3108372B69A46E4
:1008F0006E4B1B68002BFBD0BFF35F8F6C4B002649
:100900009E57002E40DB7400A419A40069482318E8
:100910009B4606229A56664B1A70674B9A684B465E
:1009200010339B00D7583B1A472B3BD9634B9F4250
:1009300031D105AF624B3B80624973000293981935
:1009400080005C4C00190230FFF732FF78805E4B6C
:10095000BB80FF23BB71FD71019A0792029B9B191B
:100960009B00E31807CF07C301275B463B431F00EB
:10097000524639004846FFF7DDFE09B0F0BCBB46E1
:10098000B246A946A046F0BD504B514A9421514869
:10099000FF3103F0DBF8504B4D4ACD214D48490063
:1009A00003F0D4F801233A009A439046101A0C2120
:1009B00001F0D0F800290FD143460024DA79AA4289
:1009C00012D90621595600290DDB4A00521892000F
:1009D00038491C008B18F1E7404B3D4AAC213D489B
:1009E000FF3103F0B3F81C00002C2DD005AB3C4ABE
:1009F0001A80813A5A800623E3569846002B16DA6D
:100A0000384804AB188142469A72DD72019B079305
:100A1000201D5946FFF7CCFEA080A671254B720021
:100A2000921992009B1805AA13CA13C3A0E7201DB0
:100A3000FFF7A6FE01007000801980001D4BC01852
:100A40000430FFF7B5FEDCE705AF1D4B3B801D49C9
:100A5000730002939B199B00164C1800A446604437
:100A600003900230FFF7A4FE7880039A101D4146E0
:100A7000FFF79EFEB8801C4B4246121B5241534367
:100A80001B0DBB71FD7101990791029B9B199B0086
:100A9000A446634407CF07C3114B42461380813BF2
:100AA000538001275B463B431F0061E7240100D0D0
:100AB000CD180020D40B002000ED00E0C101001093
:100AC00000A1FFFF1C0C002001BDFFFF006A001009
:100AD000F474001050690010286A0010506A001069
:100AE0000148000001BD0000AAAA000070B5012263
:100AF00002432D4BD31A472B29D8EFF30583002B44
:100B00002BD0EFF3108172B68C4628490968002972
:100B1000FBD0BFF35F8F2449254C05006D1A6D4152
:100B20006C43240D64B2234989689B00C9589142E3
:100B300019D00021052930D81B4B4A0052189200C9
:100B40009B189B795BB2A3421DD00131F2E71A4B8F
:100B50001A4A1B481B4902F0F9FF1B4B174A184859
:100B60001A4902F0F3FF134A92681949D150194B00
:100B70001A7882711C70BFF35F8F0C4B00221A60D1
:100B80008CF3108870BD084B4A005518AD005D19F4
:100B9000FF26AE71104AAA80E9E7104B074A0848C1
:100BA0000F4902F0D3FFC046D40B0020240100D02F
:100BB000AAAA000000ED00E0D46A0010BC74001086
:100BC0005069001096020000FC6A001099020000B3
:100BD000C1010010CD18002001BDFFFF086B0010FF
:100BE000AA02000000B583B001000648064B00933E
:100BF00005230022FFF747FD002801DB1F23181AF9
:100C000003B000BDD1180020106B0010024B9C46B1
:100C100061448900016070474000003410B5040051
:100C2000FFF75AFD01002000FFF7F0FFFF232371BB
:100C3000BFF35F8F10BD10B50400FFF74DFD01003D
:100C40002000FFF7E3FFFF23237100236371BFF34D
:100C50005F8F10BD10B50D4C09E00D4B0D4A0E48CD
:100C60001A2102F073FF2000FFF7D8FF08340B4B66
:100C70009C4209D22368002BF5D0012BEDD1200036
:100C8000FFF7D9FF0834F2E710BDC046B80C0020CA
:100C90002C6B00104C7500104C6B0010C00C002029
:100CA000034B9C46614489000160BFF35F8F70472E
:100CB0004000003410B504000120FFF71BFD0100C7
:100CC0002000FFF7EDFF10BD30B5836A9C46D41AB3
:100CD0000B1D9B001B5865465B1B9C4204D3046A9A
:100CE00001238B40234202D1043189000A5030BDD8
:100CF00000040843704700000A4B1968EFF31083A3
:100D000072B60A68002AFCD0BFF35F8F054A1268EA
:100D1000BFF35F8F0021116083F3108840BF002074
:100D200000217047AC180020F0B5DE4657464E460D
:100D30004546E0B583B0EFF3058303221A40110066
:100D40000192AF4B9200D35898461B788B4207D143
:100D50000123019A93400093AA4B009A1A601FE165
:100D6000A94BAA4AAA489C2102F0F0FE43465A69C0
:100D70004B465B004B44DB0093469B445B469E68BE
:100D8000DF68A44800F0BCFB801BB941002900DAF1
:100D900010E1002F61DB5B461C699F4B9C4247D0F2
:100DA00043460820185E5B46598889B2FFF7A0FFCA
:100DB0005B465969A04704000D0023002B434CD02B
:100DC000002D3EDA30003900001BA9415B469860D7
:100DD000D96000241C5F002C00DAEBE043465A691E
:100DE000924663001B19DB0053449A68DB680500D8
:100DF0000E00AD1A9E41002E00DADBE043461C8156
:100E000047460837BC46002C21DB634600229B5E28
:100E10005D00ED18ED005544AA68EB6806000F0070
:100E2000B61A9F41002F12DBAC460023EC5EEAE7C6
:100E30005B465C6923692000984700280DD030CCC0
:100E4000BBE7744800F05CFB00196941BEE75B46F4
:100E50001C804B4662461380ACE05B4600229B5EE2
:100E6000424613811269EFF3108372B611680029AC
:100E7000FCD0BFF35F8F42460221525E59460A8082
:100E80004246494651801269BFF35F8F00211160CD
:100E900083F310888EE043461969EFF3108372B62E
:100EA0000A68002AFCD0BFF35F8F4246928812B2D4
:100EB00091460122524241468A800A69BFF35F8F00
:100EC0000021116083F310881CE09B4600229A5E8B
:100ED000002A0EDB5B460021595E4B005B18DB00ED
:100EE00053449868D96826002F00361A8F41002F86
:100EF000EBDA4B4659460B80634600215B5E994610
:100F000063461A804B46002B5ADB43465A69924689
:100F10004B465B004B44DB009C46D44463469C68D4
:100F2000DD6846460836B346434608229A5ECFE758
:100F30000023424693714146083143460820185E1B
:100F400011E001225242D317A260E3604346082217
:100F50009B5E834206D00D80434608229B5E238021
:100F6000434618812800431C2ED043465A6943004B
:100F70001B18DB00D418D55E63881BB2002BE0DBA6
:100F80002100EFE722002B0001992248FFF79CFE89
:100F9000204800F0B5FA241A8D41002D28DC25D018
:100FA0001C4B009A5A63434608229B5E9946002BCD
:100FB00000DBDBE643469B881BB2002B00DB6AE7C5
:100FC00043469B79002BB3D1434608229A5E002A00
:100FD0000EDB4346596953009B18DB00CB189C6815
:100FE000DD68631CCED16B1CD2D0CBE7002CD7D0F0
:100FF00040BF03B0F0BCBB46B246A946A046F0BD18
:10100000901600203C700540E06B001078750010D1
:101010000C6C001000400540290D001070B5040054
:101020000D0011000126AE4006622800FFF726FCE5
:1010300001212800FFF7FAFB024B9C46644426601E
:1010400070BDC04638200000F8B504000F0016003F
:101050001D00C160FFF740FB124B9C4660448000BE
:1010600020612670ABB26381D022120612786270C2
:10107000012252422281A2809B186380002306E055
:10108000581E61695A00D218D20088520133AB420F
:10109000F6D3054BB200D450044A31003800FFF7B4
:1010A000BDFFF8BD4000003490160020290D00104F
:1010B00010B5064B1B69002B01D0044810BD044B32
:1010C000044A0548652102F041FDC046400C00205D
:1010D0004C6C0010607500100C6C0010F8B504002A
:1010E0000569EFF3108072B629680029FCD0BFF3C0
:1010F0005F8F0221665E656971008919C9006D18EC
:10110000002E02DB0027E95F61802169BFF35F8F5A
:1011100000270F6080F31088002E2CDB06992961D0
:1011200007996961AA60EB606B8801335B04590C15
:10113000002B00D1012169803000FFF7D9FD216922
:10114000EFF3108372B60A68002AFCD0BFF35F8FFA
:10115000A2882A80A6802269BFF35F8F00211160D8
:1011600083F31088E368217801228A4003498C4682
:1011700063441A60F8BD01204042FBE73C200000B8
:1011800070B582B0060014001D0008AB1B78002B60
:1011900007D100F0CBF922002B00121A8B41002B53
:1011A0000ADB079B0193069B009322002B00300073
:1011B000FFF794FF02B070BD0020FBE7F0B5C64614
:1011C00000B584B080460F0016001D000AAB1C78E5
:1011D000FFF76EFF02940195009642463B00FFF731
:1011E000CFFF04B080BCB846F0BD000030B50400AD
:1011F0000A1443899A4230DA406953009B18DB0095
:10120000C31822699446EFF3108272B660460068F4
:101210000028FBD0BFF35F8F588885B20904090C02
:10122000884212D000202369BFF35F8F002119602C
:1012300082F31088002811D0E368217801228A40C7
:1012400007498C4663441A6008E00649294389B27D
:1012500059800123A3710120E5E7002030BDC0467D
:101260003C2000000080FFFF10B50400FFF720FFC6
:101270002100FFF7BBFF10BD40787047F0B583B089
:1012800006000F00EFF30583002B1AD106246442F9
:10129000E517A4197D418D4202D803D1844201D9BA
:1012A0000024002500F042F922002B00121A8B4185
:1012B000002B0BDC08D03000390000F03FF903B000
:1012C000F0BD1648FFF796F9002AF4D0144A00231F
:1012D000009320002900FFF771FF002813DAEAE7E6
:1012E000104B1968EFF3108372B60A68002AFCD01D
:1012F000BFF35F8F0B4A1268BFF35F8F002111604D
:1013000083F3108820BF084B5B6A9D42E8D80649EA
:10131000896AA142CFD29D42CDD1E1E7706C001025
:10132000F90C0010AC1800200040054070B5040016
:101330000D0000F0FBF822002B0012184B411000AA
:10134000191E02DBFFF79AFF70BD012040420149E0
:10135000F8E7C046FFFFFF7F10B5FA229200002396
:10136000002101F033FAFFF7E1FF10BDF0B5C646EA
:1013700000B584B080460391EFF30583002B2BD199
:10138000474B1A685B68824239D0FFF791FEC36809
:101390001F00067842461400039A1500180000F05A
:1013A000AFF802000B00A41A9D412200311D8900F4
:1013B000C959091A0020A84227DC24D020BF039A6B
:1013C000384B5B6A9A424BD83649896A41454CD2C0
:1013D0009A4243D0012044E00B00324A526A8A42CA
:1013E00009D33049896A884207D99A4201D001203D
:1013F00037E0002035E0002033E0012031E0039A9F
:101400009342C2D1DAE79142D8D9274A0023009308
:1014100045462800039C2100FFF7D0FE002826DD6A
:101420001F4B1D60039959600D001E4B5B6A99426A
:1014300005D81C4A926A424502D2994200D120BF87
:10144000FFF712FF174B5B6A9D4224D8154A926A38
:10145000424522D29D421CD0012002E0002000E043
:10146000002004B080BCB846F0BD0120F9E70D4B68
:101470005B6A9C4209D80B49896A414507D29C4264
:1014800001D00120EDE70020EBE70020E9E7012093
:10149000E7E70020E5E70020E3E70120E1E7C046B9
:1014A000380C002000400540F90C0010004870473F
:1014B0000040054010B50B4B1B69002B04D00A48B7
:1014C0000A21FFF7A3FB10BDFFF7F0FF0400032183
:1014D00000F00CF80348102303222100FFF7B4FDAD
:1014E000EDE7C046400C0020AC18002010B5024AC1
:1014F0000248FFF7ADF810BDC06C001020120020AC
:101500000200436A906A1900536A9942FAD17047FF
:10151000416A00E0416A9942FCD300E0416A994285
:1015200002D1816A9142F9D37047000010B5024898
:10153000FFF7E6FF10BDC0460040054010B50200B1
:101540000B000248FFF7E4FF10BDC0460040054015
:10155000F8B5CE46474680B505000E009046994640
:1015600044002418A400284B9C4664446368089AED
:10157000934200D262602F1FFFB2012F2ED980222A
:101580001201C0239B01E3181A60204BAA00D15816
:10159000002907D0586900F0DDFA013043001B181C
:1015A000033BFDD243465B0122685340E0221340D7
:1015B00080225201A2181360012F1AD980239B01A7
:1015C000E318802212011A60089B63600F4BAD0084
:1015D0004A46EA50C0BCB946B046F8BD012ECED14D
:1015E0000322C0239B01E3181A60A368DB07FCD524
:1015F000D8E72168714003230B401360A3680122E0
:10160000B2401A42FAD0D9E70080004024120020EC
:1016100070B582B006000D0014001800069900F0A5
:1016200099FA0300069A1102009122002900300065
:10163000FFF78EFF02B070BD10B582B08024640049
:101640000094FFF785FF02B010BD0000014B800041
:10165000C058704724120020F0B5C64600B50400FB
:101660000E0017001D00374800F074FA8046364B14
:10167000FA18364B9A4239D80100380000F06AFA5D
:101680000200103A98235B009A4235D86B1E062B55
:1016900038D8069B013B062B34D83F09474537D342
:1016A0002D04069B1B031D432368002B36DB284BB0
:1016B0009C4244D00C2201239340264A1360264AC0
:1016C0001360264A1268190091430A1EF9D1266058
:1016D000A060234BE31821321A602268002AFCDA4A
:1016E000E56008221A6080BCB846F0BD1D4B1E4A5A
:1016F0001E48112102F02AFA1D4B1B4A1B481921D2
:1017000002F024FA1B4B184A18481C2102F01EFA5A
:10171000194B154A1548232102F018FA22683F2375
:101720001340B342C3D1A3681B051B0D8342BED136
:10173000E368EE22D2021340AB42B8D1D3E70D22C8
:10174000B9E7C046001BB70080E84BD380F8A93248
:1017500000C0024000E0004000F0004008C000402F
:1017600004300000E46C001090750010346D00101F
:101770007C6D0010986D0010E46D0010024B1A682B
:10178000024B5A607047C04680160020008005401A
:1017900010B5174B8022D2051A60164B164A1A60F4
:1017A00000290AD0154BE022D2041A60002809D182
:1017B000124B802212061A6010BD0D4BE022D2049B
:1017C0001A60F3E743011B1A9B00181800010C4B29
:1017D000186080235B04984202D3094B094A1A60BF
:1017E000FFF7CCFF054B8022D2051A60E4E7C04624
:1017F00000B0054008200140FCFF010000A00540AA
:1018000080160020FFFFFF0010B503000C00100041
:101810000B4A8021C9051160002B0DD00122134312
:10182000084A0949D16109495940116254629362D9
:101830000021FFF7ADFF10BD024B0022DA61F7E790
:1018400000B0054000800540D3C007B02D3FF84FE1
:1018500080239B000B43014AD36270470080054000
:1018600010B5010018231B8814221088984710BD5A
:1018700010B5010018231B8816221088984710BD48
:10188000F0B5C64600B507000E00002501239846B6
:1018900000E00135B5420AD2AC003C192068FFF7E0
:1018A000DFFF20600028F4D100239846F1E740468E
:1018B00080BCB846F0BD000070B504000D000648BD
:1018C000FFF7CEFF0300002C03DB0120A04029001E
:1018D00098470020FBE7C04655420000074BAA226C
:1018E00012011A608D225200DA60054B054A1A6017
:1018F000024B5B68002BFBDA7047C0460040024099
:101900000060024000B0FA0010B5040001E008CC0D
:101910009847024B9C42FAD310BDC046E4670010C2
:101920007047000010B50248FFF7EEFF10BDC0463B
:10193000A8670010054B064A1A60064B064A1A6053
:10194000064B1A68044B9343FAD1704700E00040FD
:10195000BFCDFBFE00F00040FE7F3C0008C0004011
:10196000044BDB6C002B03D1034B8022D2021A60A4
:101970007047C046000011504C201150044B054ADE
:101980001A60054B1B68DB43DB01FAD17047C04688
:1019900000F00040FFFFFF0108C00040034B402261
:1019A0009A675A671A67DA667047C04600F00140C6
:1019B00010B5FEF7AFFE10BD10B50C4C0C4BE41A81
:1019C000A4082200302C00D930229200094808498E
:1019D00000F0BCFF04E0084A064BA100CA500134E5
:1019E0002F2CF8D9034B054A936010BDC00100109D
:1019F0000001001000000020C101001000ED00E017
:101A000070B50420FFF722FE064900F0A3F8050098
:101A10000024002C00DD70BDE0B22900FFF718FFA4
:101A20000134F6E740420F0030B583B0274B002267
:101A30009A67FFF753FF264B01221A60234B5B6C1A
:101A4000012BFBD1234B03221A60204B9B6B012BF4
:101A5000FBD10133009304331F4A01211F48FFF7D4
:101A6000FBFD052300931E4A01211E48FFF7F4FDEC
:101A70001D4B002202210420FFF7DEFD1B4D2B0031
:101A8000002201210520FFF7D7FD194C2300002279
:101A900000210720FFF7D0FD2300002200210820AD
:101AA000FFF7CAFD8023DB00009323000022002102
:101AB0000920FFF7ADFD2B00002200210620FFF7D3
:101AC000BBFDFFF79DFF03B030BDC0460080004066
:101AD0003CB0004030B00040002F68590080024008
:101AE000008C864700C00240001BB70040597307B6
:101AF000006CDC0201480421014B1847600C0020F7
:101B000081180010124A936F9B0815D29066D16617
:101B1000002905D0FFE7FFE7FFE7516F106F70471F
:101B200004B580210906C2175140002800D0C843DF
:101B300004F01AFE002104BDF0B5146E556E576F07
:101B4000166FFFF7E3FF1466556657671667F0BD1B
:101B5000000000D0114A936F9B0813D210665166A3
:101B6000002905D0FFE7FFE7FFE7516F106F7047CF
:101B700004B5002801D00020C04304F0F5FD002189
:101B800004BDC046F0B5146E556E576F166FFFF763
:101B9000E5FF1466556657671667F0BD000000D074
:101BA00094464A4A926F9208624601D228E0C046A3
:101BB000F0B5464E346E756E776F366F00F020F8D4
:101BC0009446424A14665566576716676246F0BDEA
:101BD00094463E4A926F9208624601D254E0C04653
:101BE000F0B53A4E346E756E776F366F00F04CF884
:101BF0009446364A14665566576716676246F0BDC6
:101C0000002B24DB11D000293EDA00B5C943404245
:101C100000D1013100F038F8C943404200D1013110
:101C2000DB43524200D1013300BD002AEBD1002832
:101C300001D1002905D00020C90FC90701D1C04337
:101C4000410800B504F058FD0022002300BD00B596
:101C500000290ADBDB43524200D1013300F014F8C3
:101C6000C943404200D1013100BDC943404200D1C7
:101C70000131DB43524200D1013300F005F8DB4370
:101C8000524200D1013300BD002923D1002B18D1CD
:101C9000002A0CD0BC460D4F38667A66002100231E
:101CA000FFE7FFE7FFE77A6F386F67467047002866
:101CB00001D00748010000B504F01EFD00220023FA
:101CC00000BD02000B00002000217047000000D082
:101CD000FFFFFFFF002B00D0BFE0130C28D1002A2C
:101CE000E7D080B4114F39667A66FFE7FFE730B47A
:101CF000040C7B6F396F1B0423433B667A66FFE756
:101D0000FFE7FFE7C04684B27B6F3D6F1B042343B0
:101D10003B667A66FFE7FFE7C04600232C042D0CE4
:101D20007A6F386F00196941B0BC7047000000D06D
:101D3000F0B594460025140E01D112020835140F97
:101D400001D112010435940F01D192000235D40F54
:101D500001D152000135D40B0134254F7C66254C4E
:101D60003C660E0C93B2FFE7FFE7FFE73C6F66436C
:101D7000360C7703BE467343DF0B5B04C01AB941D0
:101D8000130C7343DB18C91ACE086643360CB644ED
:101D900093B273431F0F1B01C01AB941130C734355
:101DA0001F0B1B05C01AB941860D8F023E436643C7
:101DB000360C092D24DB520A7243801A7703460A37
:101DC0006643360C16235B1BDE40DF40BF196446BA
:101DD0006643821B7046043506330100D940A84093
:101DE000C01900D30131A24206D20023F0BD000089
:101DF000000000D0FFFFFFFF121B0130F3D3F1E71B
:101E000009277F1BFE406446A2B27243801A00D2AB
:101E10000139220C7243130C1204821A99410B00EF
:101E20007046043513370100F940A840801900D3EB
:101E30000131002B02D1A2420AD2F0BD013000D301
:101E40000131121BFAD2013BF8D1A24200D2F0BDFF
:101E5000013000D30131121BF7E7F0B51C0C00D0A4
:101E600080E00CB400251C0A04D11B02160E33437B
:101E7000120208351C0B04D11B01160F334312014B
:101E800004359C0B04D19B00960F3343920002351E
:101E9000DC0B02D192185B4101351C00971864419C
:101EA0000134464F7C66464C3C660E0CFFE7FFE76C
:101EB000FFE7C0463C6F6643360C7703BE4697B2D9
:101EC0007743C01B00D20139C01B00D201399FB239
:101ED0007743C91BC91B170C77437E04FF0B801B7C
:101EE000B941CE086643360C0C2D33DBB644120BD9
:101EF0001F053A431B0B97B27743C01B00D2013931
:101F00009FB27743C91B170C77433E043F0C801BDD
:101F1000B941860D8F023E43664329277F1BFE4051
:101F20000C3D7746AF40BF1930BCA2B2ABB2724392
:101F30007343801A9941220C7243130C1204801AC5
:101F4000994102000B000137001BA941F9D2781E0C
:101F50000021F0BD0C277F1BFE4077467F0BAF4072
:101F6000FF19E0E700245D1C07D0144F7D66396639
:101F7000FFE7FFE7FFE7FFE73C6F95B29EB26543DF
:101F80006643401BB141150C1E0C65436643360485
:101F90002F0C3E432D04401BB141994204D2020054
:101FA0000B0020000021F0BD01D19042F7D3801A30
:101FB000994101349942F2D3F6E70000000000D0C5
:101FC000FFFFFFFF48404140484018B41B4B5B688F
:101FD000FC46019308BD04DF9F22001018B4174B84
:101FE0001B68FC46019308BD00DFA922001094463F
:101FF000134A926F920809D2624618B40F4BDB68FD
:10200000FC46019308BD0CDF612500100C4AF0B5B9
:10201000146E556E576F166F6246FFF7EEFF084A53
:102020001466556657671667F0BD18B4034B9B6876
:10203000FC46019308BD08DF05240010A816002007
:10204000000000D0FFB550404240504059404B4046
:10205000594000E0FFB5154F4C00640D03D0BC4261
:1020600004D10C0314D80020090D09055C00640D8F
:1020700003D0BC4204D11C030AD800221B0D1B054F
:1020800001264B4009D44B4003D58B4200D18242FC
:10209000FFBD9942FCD19042FFBD0B43DB180343C7
:1020A0001343F5D0C9434918FFBD0000FF070000E6
:1020B00000B5FFF7CFFF804100BDC04600B5FFF778
:1020C000C9FF01D9002000BD012000BD00B5FFF708
:1020D000B9FF01D9002000BD012000BD00B5FFF708
:1020E000B1FF804100BD012040054A00121804D80C
:1020F0005A00121801D800207047012070470000D4
:102100000021002805D17047C1174840401AFAD075
:10211000C90713B5064B1B6898470CBC441CA2406A
:102120001005120B0349091B09051943114310BD82
:10213000A81700201F04000010B54C00620D80237A
:10214000D218DB00D21A5B057E2A10DD9E3A13DA24
:10215000CC170903490819435242D14064000134A5
:102160001532202A05DAD0400843604310BD002014
:1021700010BD0846604310BDC80FC018013810BD1F
:1021800018B4044B5B6AFC46019308BD24DF112799
:1021900000100000A816002070B513231C78012C35
:1021A00012D0012C12DC214B214A93642148FFF705
:1021B00057FB214B186070BD1C491D4A9800815087
:1021C00001331F2BF8D9ECE70023FAE71B48FFF790
:1021D0004FFB05001A48FFF74BFB023803789B00C2
:1021E0007F2B09DD12488022290000F0AFFB022C72
:1021F00008D0022CDADCD6E7124B134A13483421FC
:1022000001F0A4FC124B1A88B5231B029A4209D193
:10221000104B1A88104B9A4204D1104B1A88104B5D
:102220009A42E6D00020FEF7E5F9C046652200108C
:10223000A81600204C330000A817002053440000CB
:1022400053460000006E00109C750010446E001094
:1022500054380000D8380000494600009C3800007F
:102260005946000007B56046002800D100BE01882D
:102270000A0A0230DF2AFAD1C9B2820804D30288DE
:1022800040880004104300E00068024A5050039068
:1022900007BD0000A81600200FB403BC0CBCF0B5AD
:1022A0000124E407634000E0F0B50C0DCF0F661E7B
:1022B0003605891B640503D3C943404200D301316D
:1022C000640D03D0661CF60A07D0E41B00207F00D3
:1022D000791C89078912803C24031D0DDF0F6E1EB7
:1022E00036059B1B6D0503D3DB43524200D30133FC
:1022F0006D0D03D06E1CF60A07D0ED1B00227F0087
:102300007B1C9B079B12803D2D032F1B661B58D403
:10231000A446202E46DA20371400BC401D00BD40E4
:10232000F24033412A4380185941CB0F05D0C943AD
:10233000C043002264425041514162464D0D28D1B4
:102340000D0D07D100281FD0241940414941013A01
:102350000D0DF9D0640006D3013000D30131002CFB
:1023600001D140084000013A0BD4941CE40A04D186
:1023700012051144DB071944F0BDD907204B19435E
:1023800000E0D9070020F0BD0029DDD1002CDBD111
:10239000F0BD0132C6074008CD0728434908002E8A
:1023A000E1D0D9E73C2E29DA203E40371400BC406A
:1023B00000D00124F24014431A00BB401C43D31741
:1023C000ACE7AC46202F08DA20360400B4400D00FC
:1023D000B540F84039412843A5E73C2F0CDA203FAF
:1023E00040360400B44000D00124F8400443080003
:1023F000B1400C43C117EAE710001900002494E72C
:102400000000F07FF0B50C0D661E3605891BE60A4C
:102410006405640D02D0651CED0A04D00020012182
:102420000905803C2403A4461C0D671E3F05DB1BE9
:10243000E70A6405640D02D0651CED0A04D0002291
:1024400001231B05803C24037740644497B484B285
:1024500096B27443070C7E43150C6F4380B26843F9
:10246000361802D3012000043F183004350C00193F
:102470007D41844688B29AB250430C0C62431F0CD3
:102480007C438EB27E43921902D301263604A419EE
:102490001604170C3618674101BC81B29AB2514339
:1024A000040C62431B0C5C4380B25843121802D3E5
:1024B0000120000424181004130C401863412D1847
:1024C0005E410020474106BC88B293B258430C0CD1
:1024D0006343120C544389B251435B1802D3012168
:1024E0000904641819041A0C091862416D18564140
:1024F0000020474118BCF902720D1143F0026A0D29
:102500001043ED020A0D03D16D1940414941013BD1
:10251000124E9B1B7600B3420ED26D0007D30130E2
:10252000002671416646354301D1400840001B0535
:10253000C918E4072144F0BD0BDA013306D101309C
:1025400004D101314F0D01D04908F2E7E107002025
:10255000F0BD013631050020EBE70000FF0300006D
:10256000F0B51C0D671E3F05DB1BE70A6405640D13
:1025700002D0661CF60A04D0002201231B05803C11
:102580002403D0252D060026F6432E661E096E660E
:10259000CE0FF619B44649004F0D02D07E1CF60A44
:1025A00003D000200021403F3F033E1BB600B4444F
:1025B000013F7F05C91B49082E6F013676089C0232
:1025C000950D25437543ED137543AD1301356D101E
:1025D000F603761B0CB4CC02450D2C43A2B2B3B269
:1025E0005A43270C7B43350C6F43A4B26C431B1931
:1025F00002D3012424043F191C041D0CA4187D419E
:1026000024196D41009A91B2ACB26143170C7C431E
:102610002B0C5F4392B25A43A41802D30122120436
:10262000BF182204230C52187B41019C6C431B19D8
:10263000520ED9010A434401A01A81B2B2B25143E9
:1026400003145A43360C734387B27743D617D21913
:1026500000277E4136049B191704160C7F185E4133
:102660007316ED18F301002680337541A90F06D1CA
:102670006400690AE8055B0A184309D22FE00422C6
:10268000944480337541A90AA8059B0A184326D3B0
:10269000404149412404009A019B0D005543641BAD
:1026A0004343E41A95B286B27543170C7E43030C7C
:1026B0005F4392B25A43B61802D301221204BF18E4
:1026C0003204330C52197B4152429C41002C02D4FB
:1026D0000022013051414008CA071043490802B0A6
:1026E0006246D7079210084BD218084B9A4203D281
:1026F00012058918C919F0BD0020002A01DC390033
:10270000F0BD01331905F5E7FD030000FE070000E9
:10271000002200B5203200F004F8080000BD0000DF
:1027200000220B150AD410B5944600F031F81414A9
:10273000013400DA0021CB17144C2047002000217F
:1027400070476244343A0CD40C2A07DA04009140F2
:10275000904052422032D440214310BDD843D94347
:1027600010BD203207D40C46944052422032114111
:10277000D040204310BD0800C917203203D4524274
:102780002032104110BD1800190010BD4327001061
:102790000A0DCC0F531E1B05C91A520503D3C9439A
:1027A000404200D30131520D03D0531CDB0A07D045
:1027B000121B00206400611C89078912803A1203F1
:1027C000014BD21A70470000FF03000051434343FE
:1027D000C9188C46110C83B24B4310B4040C6143EE
:1027E00092B280B2504362431C041B0C001910BC0F
:1027F00059411304120CC018514161447047000044
:1028000070B513231C782A48FFF732F80500012C15
:1028100012D0012C0ADD2B00023B1B789B007F2B82
:1028200040DD24488022290000F090F82248FFF77C
:1028300017F8224B186070BD1E485422290000F082
:1028400085F81F4B1A881F4B9A421CD1A7239B0166
:102850001A881D4B9A4216D11C4B1A881C4B9A425F
:1028600011D11C4B1A8894239B019A420BD11A4B0D
:102870001A881A4B9A4206D1194B1A68194B9A4278
:1028800001D1152307E01848FDF7B4FE1749094A9E
:102890009800815001331F2BF8D9144B054A13625D
:1028A000D361B6E7124B134A1348432101F04EF9A6
:1028B00053460000AC1700204C330000A81700203E
:1028C000EE290000C40F0000C20D0000962B00008E
:1028D000C0B50000182B0000CC2A000010B5000085
:1028E000FC2C000051ED8764886F0010FD2800105B
:1028F0009C6E0010B0750010D06E001007B56046D9
:10290000002800D100BE01880A0A0230DF2AFAD16D
:10291000C9B2820804D3028840880004104300E052
:102920000068024A5050039007BD0000AC17002019
:1029300001480421014B1847700C00208118001039
:10294000014B1B6818470000700C0020014B5B68AE
:1029500018470000700C0020704710B5002802D006
:102960000B684968984710BD0100002007E083000C
:102970001B185B00501C08601078C01830380A68BB
:102980001378303BDBB2092BF1D97047F0B5D6464E
:102990004F464646C0B505000E00100091461F0088
:1029A000099C0B9B0222110019408A461A4234D11D
:1029B000DB0716D50200B84637002E001FE0551C75
:1029C000330041462020B84701342A000A9B9C422C
:1029D000F5D33D0037004646099CB84637002E0027
:1029E0000DE00200B0463E002F000994EEE7013CE6
:1029F000551C089B185D43463900B0472A00002C3F
:102A0000F5D135003E0047465346002B16D1100045
:102A1000E0BCBA46B146A846F0BD0200B846370051
:102A20002E00ECE7541C330029002020B847220078
:102A30004B46D31A0A998B42F4D3E8E73B002F00A8
:102A400035001E00F4E7F0B5CE46474680B585B0A8
:102A500006000F00904699460C9A0D9B0EA9097826
:102A60008C46109D119C129988071CD4002C0CD008
:102A7000C8070AD56046002802D10C30084204D0AD
:102A8000013C02E03020D0540133AB4201D21F2B75
:102A9000F8D9C80707D5A34205D21F2B03D8302089
:102AA000D0540133F5E7C80612D5480505D4002BEC
:102AB00003D0AB4223D0A34221D00F98102831D0AD
:102AC0000F98022838D01F2B0AD83020D054013359
:102AD0001F2B05D86046002834D02D20D054013358
:102AE00003910294019300924B4642463900300014
:102AF000FFF74CFF05B0C0BCB946B046F0BD581E4C
:102B0000012B17D00F9D102D0BD003000F9810280C
:102B1000D6D18806D4D51F2BD2D85820D054013313
:102B2000D1E7023B8806F1D41F2BEFD87820D05490
:102B30000133C8E70300C0E71F2BD1D86030D05461
:102B40000133C0E7480703D52B20D0540133C7E732
:102B50000807C5D52020D0540133C1E7F0B5DE46C3
:102B600057464E464546E0B593B080468946924664
:102B70009B461CAB10CB1B7809931E9D002C03D1E8
:102B80001023219A9A4321928023DB00219E1E402C
:102B9000219A1A4218D0002C22D0002614E0219A43
:102BA00092061BD54121C918C9B20A39C9B2771C8E
:102BB0000AAB995529002000FEF7CCFFAC4210D398
:102BC0001F2F0ED83E00040029002000FEF7C2FF90
:102BD000CBB2092BE3D83033D9B2E8E76121E2E781
:102BE0002700219B0693209B05931F9B049303952D
:102BF000099B029301970AAB00935B4652464946F4
:102C00004046FFF720FF13B0F0BCBB46B246A946D2
:102C1000A046F0BDF0B5DE4657464E464546E0B507
:102C200095B08346089109920A931E9B99461F9F6F
:102C300020AB1B780B93229B9846239C4B463B432F
:102C400003D11033269A9A4326928023DB00269DD7
:102C50001D40269A1A4208D04B463B4339D00025E6
:102C60004E4623002C001D001FE04E4623002C0082
:102C70001D001AE0269A920623D54122D218D2B21C
:102C80000A3AD2B2631C9A460CAB1A5542462B0044
:102C900030003900FEF79CFFBD421CD813D05346CC
:102CA0001F2B14D8544606000F0042462B0030005C
:102CB0003900FEF78DFFD3B2092BDBD83033DAB2FF
:102CC000E0E76122DAE7B045E9D9564604E0564626
:102CD00002E0002600E05646269B0693259B0593BE
:102CE000249B0493434603930B9B029301960CABE6
:102CF00000930A9B099A08995846FFF7A4FE15B05D
:102D0000F0BCBB46B246A946A046F0BDF0B5DE46D3
:102D100057464E464546E0B595B004008A46934670
:102D200099461E9E1F9F32003B0030003900FFF77E
:102D3000DAF9002800D0FBE001225242D64B3000E5
:102D40003900FFF7CBF9002800D0F1E00122524210
:102D5000D24B30003900FFF7ABF9002800D0E7E094
:102D60000022002330003900FFF7A2F9002800D02C
:102D7000F3E0069607978023DB00229A1A4011920F
:102D8000229A1A4201D1062320930698079902003D
:102D90000B000A920B9303000A00024300D1E8E003
:102DA000080D4005400DBE4DAC4660440500079837
:102DB0000203120B00200021089009910893B94BDF
:102DC000134309932800FFF79FF9B74AB74BFFF762
:102DD0002CF9B74AB74BFFF701F90A900B91002283
:102DE000B54B08980999FFF7F0F8B44AB44BFFF7D0
:102DF0001CF902000B000A980B99FFF7EFF8FFF798
:102E00009BF980460890FFF77FF9AE4AAE4B0A90D7
:102E10000B91FFF70AF90022AC4BFFF7DFF8FFF741
:102E20008BF90500AA4AAB4B0A980B99FFF7FDF8FE
:102E30000A900B912800FFF767F9A74AA74BFFF705
:102E4000F4F802000B000A980B99FFF7BEF8020095
:102E50000B000A900B91FFF7E8F80E900F912B00F2
:102E60009F4DAC466344002100220C910D921B053E
:102E70000D9300230C930A980B9902000B00FFF7A7
:102E8000ADF8129013910A9A0B9B00208021C9057E
:102E9000FFF79BF80A900B910022924B0E980F9926
:102EA000FFF7A5F80022904BFFF798F802000B00FF
:102EB0000E980F99FFF79BF800228C4BFFF78EF8C6
:102EC00002000B000E980F99FFF791F802000B001B
:102ED0000A980B99FFF782F802000B0012981399D9
:102EE000FFF785F800226F4BFFF778F80C9A0D9BDF
:102EF000FFF79BF802000B000A920B93069A079BC0
:102F00000C900D91FFF7EAF800280AD04346013BE8
:102F100008930022744B0C980D99FFF768F80A90FB
:102F20000B91089B6333C62B49D804231D0024E072
:102F3000229B0493219B0393209B0293009601976D
:102F40004B465A465146200000F004F915B0F0BC3B
:102F5000BB46B246A946A046F0BD0021002206911C
:102F60000792069680231B069C46BC446346079343
:102F700001E70023089304331D00229B1B052BD57A
:102F80000A9A0B9B1900114311D0594A594B0698C4
:102F90000799FFF79BF8002800D1B1E00022564BBB
:102FA00006980799FFF784F8002800D1A8E0209A36
:102FB000089B9A4206DDD31A013B209304E00523C7
:102FC0001D00DAE7002320938023DB00229A1A43B6
:102FD000229200231D000893219A954200D39BE082
:102FE000531B98460223229A1A400C92229A1342AB
:102FF00003D0002D01D000239846089B002B07D05A
:103000000A9A0B9B06980799FEF7F1FF0690079125
:103010000022002330003900FFF74AF8002800D0D2
:103020007DE0364B229A1340049343460393209B42
:103030000293069A079B009201934B465A465146CB
:10304000200000F087F8002D00D17FE7229B9B062F
:1030500071D54527461C4B46020051463800A04713
:103060000898C317C2185A4005230593013D0495DB
:10307000002303930A330293C30F019300924B463C
:10308000320051462000FFF769FD0C9B002B00D158
:103090005CE70200219F56E0FFFFEF7FFFFFEFFF9D
:1030A00001FCFFFF0000F03FFB799F501344D33F2A
:1030B000B3C8608B288AC63F0000F83F61436F6346
:1030C000A787D23F71A379094F930A400000E03FE0
:1030D0001655B5BBB16B0240EF39FAFE422EE63F02
:1030E000FF03000000002C400000244000001840B6
:1030F0002D431CEBE2361A3F80842E41FFF7FFFF81
:10310000209B002B00D167E7119B002B00D163E7C8
:10311000209B013B20935FE70023984662E7069ED1
:10312000079F3200390080200006844661440B006E
:103130000692079375E765278CE7561C4B46514668
:103140002020A04732005B46D31ABB42F5D31000C3
:10315000FCE6C046F0B5DE4657464E464546E0B56D
:1031600095B081468A4693460A93209F1E9A1F9BDC
:1031700010001900FEF7B7FF002831D1012252429A
:10318000BA4B1E981F99FEF793FF002837D10122F2
:103190005242B74B1E981F99FEF7A0FF00283DD161
:1031A0000022B44B1E981F99FEF798FF00284AD1C1
:1031B0000022B14B1E981F99FEF77AFF002842D1DA
:1031C000002200231E981F99FEF772FF00284AD1A3
:1031D00000230B93229B5B0500D4AFE0002452E058
:1031E000229B0393219B029303230193A34B009300
:1031F0000A9B5A4651464846FFF7C8FB1FE1229BEF
:103200000393219B0293042301939D4B00930A9BFC
:103210005A4651464846FFF7B9FB10E1229B5B072F
:103220000ED5984B04222299039121990291019283
:1032300000930A9B5A4651464846FFF7A7FBFEE01B
:10324000914B0322EFE7229B0493219B0393029768
:103250001E9B1F9C009301940A9B5A465146484668
:10326000FFF754FDEBE01E9A1F9B00200021FEF7A4
:10327000ACFE1E901F9101230B93ABE70CAB3022E9
:103280001A55013F01341F2C01D8092FF6D81E987A
:103290001F99FEF751FF0500FEF736FF02000B00F5
:1032A0001E981F99FEF791FE784BFA009B180CCBE5
:1032B00008920993FEF7B9FE06900791FEF760FFAA
:1032C0000600FEF71DFF02000B0006980799FEF7A7
:1032D0007CFE0690079100226D4BFEF7FFFE002852
:1032E0002ED001363000FEF70BFF02000B000898CD
:1032F0000999FEF7E3FE002801D001350026002FD2
:103300002CD12800FEF700FF02000B001E981F9929
:10331000FEF75BFE06000F0000225D4BFEF7C8FEC5
:10332000002846D100225A4B30003900FEF7D6FE65
:1033300000283ED1EB073CD501353AE006274DE7A2
:103340000022534B06980799FEF7B2FE0028D6D10B
:10335000002E01D0F307D2D50136D0E7A8461F2CA6
:1033600011D8013F0A213000FEF7F4FB651C303113
:103370000CAB19550A213000FEF7ECFB092E0ED9D3
:1033800006002C00EBE745461F2C0CD87B1E002FB7
:1033900009D00CAA302111551F000134F4E72B008D
:1033A00045461C00F0E71F2C03D80CAB2E221A5503
:1033B00001341F2C10D80A212800FEF7A3FB661C3D
:1033C00030310CAB19550A212800FEF79BFB051E76
:1033D00001D03400EDE73400229B9B0719D4229BD7
:1033E000DB0716D5219B002B0ED00B9B002B03D1A6
:1033F0000C33229A134207D0219B013B219303E017
:103400000CAB30221A550134219B9C4201D21F2C57
:10341000F6D91F2C06D80B9B002B17D00CAB2D22F6
:103420001A550134229B0393219B029301940CAB08
:1034300000930A9B5A4651464846FFF7A7FA15B033
:10344000F0BCBB46B246A946A046F0BD229B5B0736
:1034500004D50CAB2B221A550134E3E7229B1B0742
:10346000E0D50CAB20221A550134DBE7FFFFEFFF5C
:10347000FFFFEF7F65CDCD4165CDCDC1706F0010F1
:10348000746F0010646F00106C6F001028760010CD
:103490000000E03FF0B5DE4657464E464546E0B5F3
:1034A00093B083468A4690461193002900D11AE3CF
:1034B00000255E46119B1878002800D116E32528C8
:1034C00009D06C1C43462A005146B047119B01337A
:1034D00011932500EEE701331193002712E0202A13
:1034E00025D0232A05D1102217430133119301243B
:1034F00006E0002404E00222174301331193012463
:10350000002C1CD0119B1A782B2A0AD0E7D92D2A1F
:10351000F1D0302A11D12F3A1743013311930124EE
:10352000EEE704221743013311930124E8E7082250
:103530001743013311930124E2E70024E0E7119BD4
:103540001A781300303BDBB2092B15D92A2A18D080
:103550000B94119B1A782E2A23D0119B1A786C2A6F
:1035600047D03CD9742A62D07A2A65D18022520091
:103570001743013311935FE011A8FFF7F5F90B90A2
:10358000E7E71C9B1A1D1C921B68002B04DB0B93A6
:10359000119B01331193DCE7022217435B420B932B
:1035A000F6E78022D20017435A1C11925A78130072
:1035B000303BDBB2092B0BD92A2ACED11C9B1A1D1A
:1035C0001C921C68002C08DB119B01331193C4E78B
:1035D00011A8FFF7C9F90400BFE70024F4E7682A3F
:1035E00017D06A2A28D18022920017430133119301
:1035F00022E0802252003A43591C119159786C29DB
:1036000001D0170018E0C022920017430233119333
:1036100012E080223A43591C11915978682901D04F
:10362000170009E0C02217430233119304E08022FF
:103630005200174301331193119B1878652840D02D
:1036400077D8462800D18BE01BD9632831D10223DB
:103650001A003A4091463B4200D1B0E101241C9B44
:103660001A1D1C926F1C187843462A005146B04719
:103670004B46002B00D0A6E1119B013311933D0076
:1036800018E7252809D16C1C43462A005146B0474B
:10369000119B0133119325000CE7452811D06C1CB8
:1036A00043462A005146B047119B01331193250030
:1036B00000E763282BD858282BD0622829D0472828
:1036C000EDD1672801D0472802D180231B011F4379
:1036D000452801D0472801D120231F431C9B0733D5
:1036E000072293431A0008321C9204970B9A039204
:1036F00002940CCB0092019343462A0051463000BD
:10370000FFF704FB0500119B01331193D2E66428F7
:10371000C5D178284DD0582800D17CE06F2800D141
:103720007CE0622800D17CE010239F43063B9C464E
:1037300041E0702800D1BCE10DD9732831D11C9B28
:103740001A1D1C921B689B46002C00D06EE10122C2
:1037500052425B464AE16728B3D01DD866289ED105
:10376000462800D11CE11C9B0733072293431A0013
:1037700008321C9204970B9A039202940CCB00928D
:10378000019343462A0051463000FFF7E3FC050051
:10379000119B013311938DE66928BAD06F28B8D0F8
:1037A0007DE7732800D27AE77528B2D07828B0D0A8
:1037B00075E710239C46582836D0692803D0642822
:1037C00001D00C2297437A0501D50122974369283D
:1037D0002DD064282BD0BA0500D5A3E0FA0500D57A
:1037E000BBE07A0600D4CDE01C9A111D1C91116833
:1037F000FF220A4005970B9B0493039463460293B0
:1038000000230193009243462A0051463000FFF7FF
:10381000A5F905002AE010239C46CCE708239C4626
:10382000C9E702239C46C6E720221743C5E7BA052D
:1038300020D4FA0551D47A0667D51C9A111D1C9123
:103840001168FF220A40D0171118414005970B9BC1
:103850000493039463460293D20F0192009143466E
:103860002A0051463000FFF779F90500119B01331A
:1038700011931FE61C9A073207218A431100083171
:103880001C91116853689946DB170C930D930C9AA1
:103890000D9B100048400E900D9B49464B400F93E6
:1038A0000E980F990C9A0D9B801A99410E900F91CA
:1038B00008970B9B07930694634604930023059394
:1038C0004B46DA0F02920090019143462A0051467E
:1038D0003000FFF79FF90500C8E71C9A111D1C91E5
:1038E0001268D0171118414005970B9B049303945D
:1038F00063460293D20F0192009143462A0051463B
:103900003000FFF72BF90500B0E73A0605D51C9A01
:10391000111D1C910023D25E95E71C9A111D1C916C
:10392000126890E71C9A073207218A431100083178
:103930001C9108970B9B07930694634604930023FE
:10394000059302930CCA0092019343462A00514604
:103950003000FFF75FF9050088E71C9A111D1C91E4
:1039600005970B9B049303946346029300230193F2
:103970001368009343462A0051463000FFF7EEF8E3
:10398000050073E73A0606D51C9A111D1C911268B2
:103990001204120C2EE71C9A111D1C91126829E7C3
:1039A00020231F43DFE6571C434651462020B047E3
:1039B00023003A005C1C9D42F5D815004FE6012318
:1039C0002A000B9DF6E73A00B1460B9E06E0571C15
:1039D000434651462020C8472C003A00651CA642A9
:1039E000F5D817004E4647E601330A00197800293A
:1039F00002D0511E002AF7D15A469B1A8022D200CB
:103A0000390011408946174202D0A34200D9230051
:103A100002221100394010913A4209D02A002500B3
:103A20005F469B4633004E46994621E0220090E6D1
:103A30002A005546A24606E0541C43462900202091
:103A4000B0473B0022005F1C0B999942F4D85446C2
:103A5000AA463B0025005F469B4633004E469946EA
:103A600006E01D000137541C43465146C84722005A
:103A70003878002804D0002EF4D06B1E002DF0D131
:103A800015005B464E46109A002A03D1119B013364
:103A900011930FE52A000B9F06E0551C4346514643
:103AA0002020B04723002A005C1C9F42F5D8150057
:103AB000ECE721233B431C9A111D1C9112680593CE
:103AC0000823049303940833029300230193009284
:103AD00043462A0051463000FFF740F80500119B8D
:103AE00001331193E6E40B4B9B46E1E4B3464545B5
:103AF0000DD343465A1E434651460020D84728005E
:103B000013B0F0BCBB46B246A946A046F0BD2A00A1
:103B1000F1E7C0465929001000B585B08C4602A9CE
:103B200002906046486001208446044800931300D8
:103B300062465242FFF7AEFC05B000BD5B290010A3
:103B400000BEFDE7704710B5FFF7FAFF10B582B071
:103B500084460C001900002A0AD0074B074801923E
:103B600000932300624600F05DF90120FFF7E8FFB3
:103B7000034B1A00F2E7C0467C6F00108C6F0010F8
:103B8000886F001010B5EFF30583002B00D000BE46
:103B9000FDF7C8FE034C01E008CC9847024B9C425D
:103BA000FAD310BDE4670010E867001010B50300F9
:103BB000080011001B68984710BD0000F8B5070009
:103BC0000D001600437D002B02D0002400200CE0E5
:103BD00003681100280098472BE03B7D0FE03B680D
:103BE000144802219847601C0134B44213DA002CB7
:103BF000F3DD631EEB5C0D3B5A425341DBB22A5DA1
:103C00000A2AF1D1002BEFD1A042E8DA3B68211A51
:103C100028189847E3E7B04203DA3B68311A2818BE
:103C20009847002E05DD013EAB5D0D3B5A425341E6
:103C30003B75F8BD7876001070B505000368002B61
:103C400016D00C4B1C6805E0290004C92000FFF7C2
:103C5000B5FF2469002C09D02368002BF9D0064B4E
:103C60001B68002BF0D0A342F3D1EDE700232B60BB
:103C700070BDC046741200207C12002010B50B6885
:103C80005A1C0A60CB181871802A00D010BD080099
:103C9000FFF7D2FFFAE7000010B5FDF747FC074A2F
:103CA000002312184B41002B03DB054802F04CFDAA
:103CB00010BD01225242034BF7E7C04640420F00BD
:103CC000B80C0020FFFFFF7F10B5024802F034FD62
:103CD00010BDC046B80C0020F0B5CE46474680B5B2
:103CE00083B080460D0016001C00FFF7D5FF81460B
:103CF0006B1C05D0002C08D0184F194B1C6807E02E
:103D0000404602F0B9FC0500F4E7164FF5E72469D8
:103D1000002C16D02368002BF9D0134B1B68002B06
:103D200001D0A342F3D12A0041462000B847002E1B
:103D3000EDD06B46D91D0A230B7001222000B84735
:103D4000E5E74B46002B05D1280003B0C0BCB946BF
:103D5000B046F0BDFFF7B8FFF6E7C046BD3B001028
:103D600074120020AD3B00107C1200200A4A136838
:103D700002E01A0010321B69002B09D0136883423D
:103D8000F7D1002907D1036913600023036102E022
:103D9000002900D0106070477412002010B5064B47
:103DA0001C6800E02469002C04D06368002BF9D063
:103DB0009847F7E710BDC0467412002010B500F018
:103DC0003DF910BD70B5050002F056FC040001235A
:103DD000012201002800FFF77FFFFFF7DFFF20002F
:103DE00070BD0000F0B5A3B007000E00FFF754FF50
:103DF000050001AC00230193094833003A0021007B
:103E0000FFF78AFE06002000FFF716FFFFF7C6FF48
:103E1000002D02D1300023B0F0BDFFF755FFF9E7C8
:103E20007D3C00100FB400B583B004A901C9019115
:103E3000FFF7D8FF03B008BC04B01847024B186066
:103E4000024B19607047C04614120020181200205F
:103E500010B5FDF76BFB0E4A002312184B41002BE7
:103E600012DB0C4802F070FC00280CD0012000216D
:103E7000404201F0ADFA002001F05CFD0028F5D1D0
:103E8000044802F059FC10BD01225242024BE8E7FF
:103E900040420F00B0180020FFFFFF7F10B5024B1B
:103EA0001878FCF7CDFC10BDCF18002070B51A4B68
:103EB0001B68002B24D0EFF3108272B61000196833
:103EC0000029FCD0BFF35F8F13494A60134B0022D7
:103ED0001A700B68BFF35F8F1A6080F3108800229E
:103EE000002314001D000E4B1878FCF785FC0028F9
:103EF0000CD10022002314001D002000290070BDF9
:103F0000FA229200002314001D00ECE7044B1878FD
:103F1000FCF796FCF1E7C04688160020D018002078
:103F2000CF180020F0B585B0070015001E000CABBF
:103F30001C78FDF7FBFA2A00330012184B41002BC6
:103F400009DB02940B9901910A9900913800FDF761
:103F500017F905B0F0BD01225242014BF1E7C0460E
:103F6000FFFFFF7FF0B5C64600B584B080460F0066
:103F700016001D000AAB1C78FDF79AF80294019513
:103F8000009642463B00FFF7CDFF04B080BCB84628
:103F9000F0BD000010B582B02248002102F0FCFB09
:103FA00000281ED1204B1B68002B18D0EFF3108186
:103FB00072B608001A68002AFCD0BFF35F8F1A4A55
:103FC00051601A490B78DBB201240C701268BFF300
:103FD0005F8F0021116080F31088002B17D002B092
:103FE00010BD01200021404201F0F2F9002001F053
:103FF00079FC04000B4802F09FFB002CEFD00C4B27
:104000001B68002BEBD00B4A10689847E7E70A4A79
:10401000013300930023FA2080000021FFF7A2FF64
:10402000DDE7C046B018002088160020D018002018
:104030001412002018120020AD3E001010B582B0FE
:10404000D0231B061C68FDF733F8FDF715F9A042D5
:1040500030D1274B1B780021002001F06BFF254B4E
:104060001B68002B2CD00120FCF7BCFD224C2070DB
:104070002249FF231840FCF701FC20780121FCF7BE
:10408000D5FB0520FCF7ECFB041E1DD00120FCF73E
:1040900031FB01001A4B1800FCF702FE19490022FF
:1040A0000520FCF717FC18480121FFF75FFE2000F0
:1040B00002B010BD154B164A1648C821FFF746FD41
:1040C0000C48FCF7ABFDCEE70D4808220021FEF7B7
:1040D00037FC114A012300930023FA2080000021BD
:1040E000FFF740FFC043C40F0028E0DADBE7C0461B
:1040F000147A0010B0180020CF180020953F00104F
:10410000881600209D3E0010800C0020BC6F00101F
:1041100088760010C46F0010AD3E001010B500206E
:1041200001F0C6FB10BD000070B504000D00FFF7E4
:10413000F5FF002836D0002001F0D4FB002835D050
:10414000FDF7F4F91D4A002312184B41002B1ADB2E
:104150001B4802F0F9FA00282CD0FFF7DFFF0028F7
:1041600004D0002001F0BEFB002810D10120002166
:10417000404201F02DF903235B421C00104802F07D
:10418000DBFA200070BD012252420E4BE0E72A000C
:104190002100002001F0B2FB041EEFD103235B429B
:1041A0001C00EBE703235B421C00EAE703235B42AE
:1041B0001C00E6E703235B421C00E2E740420F00DD
:1041C000B0180020FFFFFF7FF0B583B005000C00A2
:1041D000FDF7ACF9314A002312184B41002B06DBE6
:1041E0002F4802F0B1FA002805D103B0F0BD01223A
:1041F00052422C4BF4E7FFF791FF00284BD12A4B9A
:104200000020002118605960254802F095FAECE77B
:1042100001200021404201F0DBF8002001F08AFB80
:10422000FFF77CFF0028EFD0002001F0FBFB002807
:104230001FD0A642E8DAA71B002001F0F3FB020022
:10424000874200DC3A00002AE2D0A919002001F0E0
:10425000C5FB070001200021404201F0B9F8002011
:1042600001F068FBF619FDF761F90F4B1860596012
:10427000DFE7FDF75BF901900F000B4B18685968F9
:104280000A4A002312184B419F42BDD8D1D101994F
:104290009142CED9B8E70026CBE7C04640420F0096
:1042A000B0180020FFFFFF7F400E002020A1070074
:1042B000004870470477001000487047B07600103F
:1042C00010B50400154B1B78002B0ED0002C11D11B
:1042D000134B144A5A80012301335B009BB21048F0
:1042E000C02292001343038010BD0C48112100F03E
:1042F00025F8EBE7052C0ED80B4BA400E45800235F
:10430000122BE9D8E15C0029E6D00133044A5800B9
:104310008152DBB2F4E70020E6E7C046B81800207F
:104320004C120020090400009876001010B50248D5
:1043300000F030F810BDC046A016002010B50C1ECD
:1043400001D0002308E00F4B0F4A10483B21FFF734
:10435000FDFB3732C2540133621E9A420ED90F2B35
:104360000CD85A080A49895C01229A4392001141EB
:104370000F220A40092AECDC3032EBE7C018002398
:10438000037010BD54700010187700105C7000109E
:10439000A016002070B588B0040004AD0D220021E5
:1043A0002800FEF7CDFA0D2200216846FEF7C8FA74
:1043B0004B232B7000230D226946280002F0ACF934
:1043C000002304E05A1D69468A5CE2540133072B3E
:1043D000F8DD08B070BD7047014B00221A707047BD
:1043E000CE1800204B79FF2B0CD18B79002B0BD1F1
:1043F000CB79012B0AD1082A0AD98A78054B1A7081
:10440000092000E0002070470020FCE70020FAE7C8
:104410000020F8E7CE1800200120704710B50129D0
:1044200028D1117953791B020B43134909788B4228
:1044300001D000201FE05378012B03D0022B12D0B3
:10444000002018E09178D3781B021943DB0506D5CC
:104450000A06D20F480A03231940FDF72DFA00225D
:1044600001204042F7E7642200210020FDF7CCF94B
:10447000012000E0012010BDCE1800200048704748
:10448000F077001010B504001000012911D1537805
:10449000012B10D1127943791B021343072B01D052
:1044A000002007E0054A9F330100200001F0D4F806
:1044B00000E0012010BD0020FCE7C0464877001056
:1044C00001230370004870471478001010B50A7873
:1044D0004B781B0213438A7812041A43CB781B06CD
:1044E00013439622D200934200D010BD0120002237
:1044F00011004042FDF7E0F930B583B004000D0033
:1045000094467F230340C20929485900891849016C
:10451000401884705142514141700021C17005839F
:104520006146C176012A1ED0DC0022498C466444D3
:104530001F4958008018400109188C601C49580018
:10454000801840010918896800200860002B15D1E7
:1045500017495B009B185B01CB1800225A60164A72
:10456000DA6003B030BDDC0014498C466444104965
:1045700058008018400109188C60DFE7012A0BD031
:10458000581EC0000E498C46604409495B009B18C8
:104590005B01C9184860E4E7581EC00009498C4611
:1045A000604403495B009B185B01C9184860D8E769
:1045B0008012002084001050000110508000105024
:1045C0000C0010500800105010B5038B3F339B09AE
:1045D0009901C27E022A08D0084A1368C3605B189A
:1045E0001360074A934202D810BDD901F4E7054B86
:1045F000054A06485221FFF7A9FAC0468416002052
:10460000FF0F1050B472001064780010F8720010A0
:10461000F8B57F240440C50963005B195B010F4EA8
:10462000B44663441E00FFF767FF002C00D1F8BDBD
:104630000A4B6400641964011C19218B3000FFF7D8
:10464000C3FFE37E9B06E168054A4A40134380228C
:104650001206134362681360E9E7C0468012002027
:104660000000105010B503007F201840DB099C4665
:10467000400060444001024BC01800F02FF910BD0B
:104680008012002010B5002804D101210520FCF77C
:10469000CDF810BD034B044A98210448FF31FFF7C1
:1046A00055FAC0466873001054780010F872001074
:1046B00010B5002805D1002200218020FFF7D2FF8D
:1046C00010BD034B034AA2210348FF31FFF73EFA16
:1046D0006873001044780010F8720010024B8022BA
:1046E0005202DA647047C0460020115070B5041EB3
:1046F00027D100F0D1F8164D0C23AB671549FF22E6
:104700000520FCF7E7F8144840220021FEF718F9CD
:10471000002240210020FFF77BFF00224021802063
:10472000FFF776FF01F0F0FF01232B6480239B0548
:10473000EB649023094AEA502000FFF7CFFF0120E5
:1047400070BD074B074A64210748FF31FFF7FEF9A8
:1047500000001150AD0400208012002010D0010094
:104760006873001078780010F8720010044B19700C
:10477000002904D0034A902380218902D150704738
:10478000CA180020002011500B78DA0605D16022EB
:104790001A4202D14B78052B00D070478A78CB782B
:1047A0001B021343FF221340014A1360F5E7C04682
:1047B0000000115010B5CA789207920F012A0AD052
:1047C00088780B794979090219434905490DFFF7A2
:1047D0001FFF012010BD0020FCE710B501F094FF81
:1047E00010BD000010B58446080011001A00634691
:1047F000002B03D1FFF736FF012010BD034B044A05
:10480000812104488900FFF7A1F9C04668730010B0
:1048100034780010F872001010B57F23180008409B
:104820000B4205D1CB09012B0ED00222074B9A6611
:10483000C909400040184001054BC01880221201F0
:10484000002101F0A1FF10BD0122EFE7002011506F
:104850008012002010B57F22100008400A4200D1CB
:1048600010BDC909400040184001044BC018002386
:10487000C3700022024901F087FFF1E78012002097
:10488000FFF7FFFF04E00A780270013101301A00DF
:10489000531E002AF7D1704710B580235B040A4AE3
:1048A00013600A4A13600A4B1A6880235B0493431F
:1048B000F9D18022520100210648FEF741F8064B4B
:1048C00009225A6710BDC04600E0004000F00040D9
:1048D00008C00040000010500000115070B50400E6
:1048E0000D001600837E002B17D1A6820023E382E1
:1048F0000133A3762561200001F016FF002804D0C3
:104900000C4A902380218902D150200001F0E4FE5E
:1049100000280AD00123237770BD81780648FFF76D
:1049200081FA200001F018FFDFE7200001F024FFEA
:10493000F2E7C046002011505874001070B5050011
:10494000002408E0E31A5B01144A9B18DB68280086
:1049500098470134E4B2124B1B78A3420CD3F1D92F
:10496000104B1B6862019B18002BEFD10E490F48BA
:104970000F4AFFF757FA10E00E4C54220021200096
:10498000FDF7DEFF201D1022FF21FDF7D9FF2000DB
:1049900014302022FF21FDF7D3FF70BD4C790010A9
:1049A000C9180020480E00201879001090740010DB
:1049B00025020000F80F002010B5FFF7BFFF00F040
:1049C00097FE10BD70B506000C001500486900F098
:1049D00099FE63692A0001213000984770BD0000EC
:1049E000F0B5DE4657464E464546E0B583B08146B3
:1049F0000139C8B2FFF760FC002803D043789B461A
:104A0000022B0CD04E494F484F4AFFF70BFA0020BB
:104A100003B0F0BCBB46B246A946A046F0BDC5797E
:104A20006C110122494B1440240119781026B1431E
:104A300021431970AD112A405201C9B22024A1436B
:104A40000A431A70060009368278C3781B021343A2
:104A5000C3189A465BE0F37898463378F6185DE021
:104A6000374938483A4AFFF7DDF90020D0E72C1BD8
:104A70006401384BE41823693A00310048469847EE
:104A80000190082801D9874213D20135EDB2324B8B
:104A90001C78AC4237D3EAD9304B1C686B01E41860
:104AA000002CE8D1264927482D4AFFF7BBF9002002
:104AB000AEE74346012B10D0002290451AD9B378B7
:104AC0009B18DBB22149C9180979FF290BD11F496D
:104AD000CB181D710132D2B2EFE72269214B9A4205
:104AE000EAD1D846E8E7164916481F4AFFF79AF96F
:104AF00000208DE71D482B00019C2200310001F0B1
:104B0000F9FAA4466644144B1B78AB420ED35645C3
:104B100014D273780B2B9ED0012398467378042B04
:104B20009ED153469F1BBFB20025B0E785220449A2
:104B30000448D200FFF776F9002069E7012067E713
:104B4000EC78001090740010D6030000F80F0020DD
:104B5000F10300004C790010C9180020480E002015
:104B6000FA0300009D5B0010190400000C100020E7
:104B700070477047002070470020704770B50500EF
:104B80000C008878CB781B021A0A1300062A54D02E
:104B900011D8022A29D0032A41D0012A09D1FFF7CE
:104BA00087FB021E1AD012232100280000F054FDBA
:104BB00029E0002027E0072A17D00F2A0CD1FFF7A1
:104BC0005DFC021E43D08178C3781B020B43210099
:104BD000280000F041FD16E0002014E020492148A3
:104BE000214AFFF71FF900200DE0022B0CD0FFF740
:104BF000C3FF021E2DD09178D3781B020B432100F6
:104C0000280000F029FD70BDFFF756FB021EF2D10F
:104C100013491448154AFFF705F90020F3E70B790B
:104C2000497909021943FFF74BFB021E13D00378A1
:104C30002100280000F010FDE5E7FFF79BFF021EB2
:104C40000BD003782100280000F006FDDBE70020F0
:104C5000D9E70020D7E70020D5E70020D3E7C046FA
:104C6000D4780010907400103A0400006104000031
:104C70007047704770477047024B5878431E984101
:104C8000C0B27047F80F0020024B18784007C00FE1
:104C90007047C046F80F0020034B1878FF38431EBA
:104CA0009841C0B27047C046B40C0020F8B5060069
:104CB0000C000F00FFF7F0FF051E45D1002C21D09E
:104CC0002C4854220021FDF73BFE2B4B00221A708A
:104CD0002A4C2000FBF7A2FF294B1C60294C200026
:104CE000FBF7E8FF143C200001F084FC264B1C601D
:104CF000264B002B04D02648FFF7E2FB254B18601B
:104D0000002410E0E922244924485200FFF78AF8E1
:104D10001AE0E31A5B01224A9B185B68002B0DD056
:104D200098470134E4B21A4B1B78A3420ED3F0D952
:104D3000184B1B6862019B18002BEED1F822164914
:104D400016485200FFF76EF82800F8BD154B1E708C
:104D500039003000FFF7CAFC051E03D03000FFF712
:104D600091FCF1E7FC220C490C485200FFF75AF87D
:104D7000EAE7C046F80F0020CB180020F00F002013
:104D80004C100020AC0C002050100020C14400103A
:104D9000C9180020480E00203C79001090740010C3
:104DA0004C790010B40C002070B50C00114B1B782E
:104DB0001E008B7870221A420DD10F4B997820007B
:104DC00001F042F9051E0ED021003000FFF7F2FC81
:104DD0000500280070BD094909480A4AFFF722F872
:104DE00000231D00F5E705490548074AFFF71AF8B3
:104DF000EFE7C046B40C0020F80F0020A4780010A4
:104E0000907400100B0500000C050000F8B5CE46AC
:104E1000474680B580460C0016009946002516E0EE
:104E200017491848184AFEF7FDFF00273800C0BC94
:104E3000B946B046F8BD9D2211491248D200FEF78E
:104E4000F1FFF3E7099A13702378E4180135AE42B5
:104E500014DD6378052BE3D1E1788907890F494593
:104E6000DED121004046FFF79FFF071EE3D0A37865
:104E7000DA09012AE6D0089A1370E5E70127D5E799
:104E8000B478001090740010E704000010B57F2083
:104E90000840C909400040183030044BC0180430A5
:104EA000034B196801F084F810BDC046F80F0020CC
:104EB0004C10002010B57F200840C9094000401860
:104EC0003030044BC0180430034B196801F09BF8D4
:104ED00010BDC046F80F00204C100020F0B583B084
:104EE0000193194B18787F240C40CD09174B6600AD
:104EF000B44663445B1930331B79DB071CD4134B76
:104F00006600B44663445B1930331E7901273E4383
:104F10001E71019BFFF766FC002813D10B4B640048
:104F20001B195B1930331A7901218A431A711A79D6
:104F300003318A431A7105E005490648064AFEF71F
:104F400071FF002003B0F0BDB40C0020F80F00206A
:104F500094780010907400103905000070B50A4B69
:104F600018787F240C40CD09FFF756FC074A6400EF
:104F700013195B1930331A7902210A431A711A790D
:104F800001210A431A7170BDB40C0020F80F0020F3
:104F900070B50A4B18787F240C40CD09FFF75AFCF6
:104FA000074A640013195B1930331A7902218A43C6
:104FB0001A711A7901398A431A7170BDB40C002034
:104FC000F80F00207F220A40C909044B52009B18A9
:104FD0005B18303318798007C00F7047F80F002036
:104FE000F0B5C64600B584B001900C00002000F07A
:104FF00089FB237860221A40602A32D0402A39D0B7
:105000002378DB06DB0E012B00D1F4E0022B00D16C
:105010003AE1002B00D0B9E1202A35D0002A00D097
:10502000C1E16378052B67D057D8012B00D1CDE0C3
:10503000032B00D1B5E0002B4CD1CC4B1A78510991
:1050400092080223134001220A40134302AA0632A7
:10505000138002232100019800F0FEFA01231D00B5
:1050600096E15532C249C3489200FEF7DBFE0023A9
:105070001D008DE1C04800F045FB22000121019890
:10508000FFF700FA050083E1227963791B021343DD
:105090000F2A00D981E1B54AFF210B40D2181379BC
:1050A000B64A1278934208D2B54A11685B01C91812
:1050B000002909D100231D006AE1934200D96FE164
:1050C0009B1A5B01AF49591822000198FFF77AFC3F
:1050D00005005DE100231D005AE1082B1BD0092BC0
:1050E00026D0062B05D121000198FFF747FD0500CA
:1050F0004EE100231D004BE1200000F009FBA178E8
:105100000198FFF7D5FA994A137802210B431370DF
:1051100001231D003CE1954B5B7802AA0632137017
:1051200001232100019800F097FA01231D002FE1CF
:10513000A27890468D4B5B7893422BD08B4B5B785B
:10514000002B0CD1894B41465970002920D0019881
:10515000FFF746FC051E11D0FFF78AFD1AE000217B
:10516000019D2800FFF702FB2800FFF736FB7F4E6A
:10517000B7782800FFF7E2FBB770E3E7C9227C4964
:105180007C489200FEF74EFE784B00225A70FFE0FA
:10519000FFF76FFD2100019800F04AFA01231D007E
:1051A000F6E0A278E3781B021343012B02D0002320
:1051B0001D00EDE06D4A137808210B4313702100A8
:1051C000019800F035FA01231D00E1E0A278E378B0
:1051D0001B021343012B02D000231D00D8E0634AB9
:1051E000137808218B4313702100019800F020FAF6
:1051F00001231D00CCE0227963791B0213430F2A9F
:1052000000D9D3E0594AFF210B40D21813795B4AE9
:105210001278934224D25A4A11685B01C9180029B6
:1052200000D1C6E022000198FFF7CCFB051E00D09C
:10523000AEE0237860221A4200D0A9E063780A3BEE
:10524000012B00D9A4E0002000F05CFA63780A2B5F
:105250000ED02100019800F0EBF901231D0097E02A
:10526000934200D9A8E09B1A5B0146495918D9E737
:1052700002AB9A1D0023137001332100019800F046
:10528000EBF901231D0083E021797F200840CB0941
:105290009C4670230B4218D1344B40001B186344CA
:1052A0001B7D36480078834217D2354800685B0181
:1052B000C3181D00002A1BD0291E00D17FE0220048
:1052C0000198FFF77FFB050062E0294929482E4A33
:1052D000FEF7A8FD00231D005AE0834205D81B1AE3
:1052E0005B0128481B181D00E4E700231D00E1E7CF
:1052F0006378012B12D0032B10D0002B62D1019DBB
:105300002800FFF75FFE02AB9A1D108002232100E8
:10531000280000F0A1F901231D0039E0A078E2780F
:105320001202024304D1012B1BD00198FFF716FE95
:10533000002D4AD0220029000198FFF743FB0020EE
:1053400000F0E0F9094B35229B5CDB07DA0F150012
:10535000002B1DD12100019800F06AF901231D00E6
:1053600016E00198FFF714FEE2E7C046F80F0020B0
:10537000007900109074001085440010C9180020B6
:10538000480E00204C7900109503000000231D00FA
:10539000280004B080BCB846F0BD00231D00F7E72C
:1053A00000231D00F4E700231D00F1E700231D008A
:1053B000EEE700231D00EBE700231D00E8E70023D4
:1053C0001D00E5E700231D00E2E701231D00DFE7E4
:1053D00030B585B0FFF760FC00284ED105B030BD78
:1053E000042B4AD16A4B1B78DB0746D5684B1878EB
:1053F0000007C00FFFF73EFC3FE0072B71D0082BE2
:1054000000D1B5E0062B38D1624B1B78002B62D05F
:10541000604A1378013BDBB213701378002B2CD158
:105420005B4B1A78012401210A431A703422995CDB
:10543000A1439954995C0420814399540132995CA9
:10544000A1439954995C8143995401AB187802A9FE
:10545000FFF7C6FD002810D101AC20780021FFF72E
:10546000DBF920788021FFF7D7F906E001AC20783E
:10547000FFF7A2FA2279464B9A70474B1C68626983
:10548000EFF3108172B61368002BFCD0BFF35F8F6F
:10549000A16101A9200001F04FF86269A369BFF37F
:1054A0005F8F0021116083F31088002800D195E7F9
:1054B00001AB5B78052B53D09FD8032B5FD08FD8DF
:1054C000012BD3D0022BD8D101AB1878FFF774FA97
:1054D000FFF7CFFBD1E731493148324AFEF7A2FC52
:1054E0007CE701AB19797F220A40CC09284B500098
:1054F0001B181B19303318790125A8431871187926
:105500000335A8431871002A15D0214B52009B186F
:105510001B191B7D244A1278934213D2234A126826
:105520005B01D318002B14D09C6901A84279039B1E
:105530000078A047A1E701A84279039B007800F01A
:10554000F5F89AE7934204D89B1A5B01184A9B1816
:10555000EAE7A422114912489200FEF763FC3DE7F6
:105560000B4B1B78DB0700D487E7FFF784FB84E74E
:10557000029B002B00D180E7039898477DE7044BFE
:10558000DB78DB0700D478E70298FFF7F2FA74E7DC
:10559000F80F0020CB180020501000202C790010AC
:1055A0009074001065020000C9180020480E002009
:1055B0004C79001010B50023CB56002B05DB802161
:1055C00000230022FFF78AFC10BD0021F8E700004D
:1055D000F8B50700144B9E89DD89731B9BB21C1C18
:1055E000402B00D94024A4B20F4B1B785BB2002B98
:1055F00008DB0021AE4213D00C4A23003800FFF72D
:105600006DFCF8BDAE4209D0074B9968402C09D813
:1056100006482200FDF79AF98021EBE78021E9E7AF
:105620000022EAE70020ECE7D80F0020980F0020C6
:1056300070B506000D00074C08222000FDF786F922
:105640000023A360E381A38129003000FFF7B2FFAC
:1056500070BDC046D80F0020F0B5C64600B58046E4
:105660000C0017001E001F4D08222800FDF76EF9E0
:10567000AF600023EB81A379E179090219430B1C88
:10568000B14200D9331C99B2164A9381A279E379C9
:105690001B02134319D0002901D0002F08D0404627
:1056A000FFF796FF041E0AD0200080BCB846F0BD6C
:1056B0000D490E487222FEF7B5FB0024F4E70A49B3
:1056C0000A487422FEF7AEFBEEE721004046FFF7E2
:1056D00071FF041EE8D1044904487622FEF7A2FBBC
:1056E000E2E7C046D80F00208479001090740010C3
:1056F00010B5034814220021FDF722F910BDC04661
:10570000D80F0020014B18617047C046D80F002009
:1057100010B50100044C08222000FDF717F9002302
:10572000A360E381A38110BDD80F002070B50500F0
:105730001A001C00C909344B1B78DB098B4219D0B5
:10574000002A08D0314932489D22FEF76BFB002326
:105750001C00200070BD2C4B1C001900FFF714F832
:105760002369002B03D0284A0321280098470123EE
:105770001C00EEE7244B1B785BB2002B06DB224BB0
:10578000986800283DD02349FDF7E0F81E4AD389E8
:10579000A1B25B189BB2D3819168A4466144916029
:1057A000D288934201D03F2C20D8174B1B69002B85
:1057B00005D0154A02212800984700280BD012492D
:1057C0002800FFF7F7FE041EC3D110491048C52278
:1057D000FEF728FBBDE700212800FFF71DF8802118
:1057E0002800FFF719F801231C00B2E72800FFF793
:1057F000EFFE041EADD105490548CD22FEF712FB90
:10580000A7E700231C00A4E7D80F00206C79001044
:1058100090740010980F002070B50400FFF72CFA68
:10582000002803D100231E00300070BDFFF72CFAC2
:10583000061EF7D11C4BC82262439B18DB78002B55
:10584000F0D0C82363431033174A9B181D0018007B
:1058500000F05BFE3F28E7D9134BC82262439B1838
:10586000D9780020FFF712FB002801D10600DBE702
:10587000280000F04AFE3F280DD9E2010B4BD21858
:10588000094BC82161435B18D97840230020FFF7FA
:1058900025FB0600C8E7044BC82262439B18D97851
:1058A0000020FFF707FBBFE7D00E00204C0E0020C2
:1058B00010B50400FFF7E0F9002800D110BDFFF794
:1058C000E3F9002808D1064BC82262439B181B79D4
:1058D000DB0703D50130F1E70020EFE70020EDE71B
:1058E000D00E002010B5C8234343103302481818C7
:1058F00000F0D7FD10BDC046D00E002070B50400EA
:10590000C82060430300103307481818074B9A4219
:1059100008D892B200F031FE05002000FFF77CFFAE
:10592000280070BD024AF5E7D00E0020FEFF0000FF
:10593000FFFF000070B50400FFF79EF9002801D1B9
:10594000002070BDFFF7A0F90028F9D1C8236343F8
:1059500020331E4A9B1804331E00180000F0A1FDDE
:105960000028EED0194BC82262439B18997800207A
:10597000FFF78CFA0028E4D0E3014033144A9B1867
:105980001D0040221900300000F0F7FD061E14D063
:105990000E4BC82262439B18997803002A0000200E
:1059A000FFF79CFA002801D03000CAE709490A48ED
:1059B000D522FEF737FA0020C3E7044BC822624322
:1059C0009B189978FFF776FA0020BAE7D00E0020EE
:1059D0004C0E0020B47900109074001070B50600D1
:1059E000C824444320340C4BE41804340B4B9A4233
:1059F0000BD892B2200000F0F8FD0500200000F066
:105A000050FD3F2803D8280070BD054AF2E730005A
:105A1000FFF790FFF7E7C046D00E0020FEFF000022
:105A2000FFFF000010B5C82358432030024BC018B8
:105A3000043000F06AFD10BDD00E0020F0B5C6465F
:105A400000B582B02448C8220021FCF779FF234B1F
:105A500000221A700027002F03D002B080BCB84685
:105A6000F0BD1D4EC8247C433519FF236B71E12323
:105A70005B02AB6000222A736A730823AB732100B8
:105A8000383189192000103080190092073B4032CC
:105A900000F0C6FC210078318919200020308019DF
:105AA000043001230093402200F0BAFC2300B833F5
:105AB0009B1998461800FBF7B1F8C034A4192000D0
:105AC000FBF7ACF80022EA6143462B622C636A6361
:105AD0000137FFB2BFE7C046D00E0020CC0E002039
